{
  "_format": "hh-sol-artifact-1",
  "contractName": "FutureCertX",
  "sourceName": "contracts/FutureX.sol",
  "abi": [
    {
      "inputs": [
        {
          "internalType": "address",
          "name": "initialOwner",
          "type": "address"
        }
      ],
      "stateMutability": "nonpayable",
      "type": "constructor"
    },
    {
      "inputs": [
        {
          "internalType": "address",
          "name": "sender",
          "type": "address"
        },
        {
          "internalType": "uint256",
          "name": "tokenId",
          "type": "uint256"
        },
        {
          "internalType": "address",
          "name": "owner",
          "type": "address"
        }
      ],
      "name": "ERC721IncorrectOwner",
      "type": "error"
    },
    {
      "inputs": [
        {
          "internalType": "address",
          "name": "operator",
          "type": "address"
        },
        {
          "internalType": "uint256",
          "name": "tokenId",
          "type": "uint256"
        }
      ],
      "name": "ERC721InsufficientApproval",
      "type": "error"
    },
    {
      "inputs": [
        {
          "internalType": "address",
          "name": "approver",
          "type": "address"
        }
      ],
      "name": "ERC721InvalidApprover",
      "type": "error"
    },
    {
      "inputs": [
        {
          "internalType": "address",
          "name": "operator",
          "type": "address"
        }
      ],
      "name": "ERC721InvalidOperator",
      "type": "error"
    },
    {
      "inputs": [
        {
          "internalType": "address",
          "name": "owner",
          "type": "address"
        }
      ],
      "name": "ERC721InvalidOwner",
      "type": "error"
    },
    {
      "inputs": [
        {
          "internalType": "address",
          "name": "receiver",
          "type": "address"
        }
      ],
      "name": "ERC721InvalidReceiver",
      "type": "error"
    },
    {
      "inputs": [
        {
          "internalType": "address",
          "name": "sender",
          "type": "address"
        }
      ],
      "name": "ERC721InvalidSender",
      "type": "error"
    },
    {
      "inputs": [
        {
          "internalType": "uint256",
          "name": "tokenId",
          "type": "uint256"
        }
      ],
      "name": "ERC721NonexistentToken",
      "type": "error"
    },
    {
      "inputs": [
        {
          "internalType": "address",
          "name": "owner",
          "type": "address"
        }
      ],
      "name": "OwnableInvalidOwner",
      "type": "error"
    },
    {
      "inputs": [
        {
          "internalType": "address",
          "name": "account",
          "type": "address"
        }
      ],
      "name": "OwnableUnauthorizedAccount",
      "type": "error"
    },
    {
      "anonymous": false,
      "inputs": [
        {
          "indexed": true,
          "internalType": "address",
          "name": "owner",
          "type": "address"
        },
        {
          "indexed": true,
          "internalType": "address",
          "name": "approved",
          "type": "address"
        },
        {
          "indexed": true,
          "internalType": "uint256",
          "name": "tokenId",
          "type": "uint256"
        }
      ],
      "name": "Approval",
      "type": "event"
    },
    {
      "anonymous": false,
      "inputs": [
        {
          "indexed": true,
          "internalType": "address",
          "name": "owner",
          "type": "address"
        },
        {
          "indexed": true,
          "internalType": "address",
          "name": "operator",
          "type": "address"
        },
        {
          "indexed": false,
          "internalType": "bool",
          "name": "approved",
          "type": "bool"
        }
      ],
      "name": "ApprovalForAll",
      "type": "event"
    },
    {
      "anonymous": false,
      "inputs": [
        {
          "indexed": false,
          "internalType": "uint256",
          "name": "_fromTokenId",
          "type": "uint256"
        },
        {
          "indexed": false,
          "internalType": "uint256",
          "name": "_toTokenId",
          "type": "uint256"
        }
      ],
      "name": "BatchMetadataUpdate",
      "type": "event"
    },
    {
      "anonymous": false,
      "inputs": [
        {
          "indexed": false,
          "internalType": "uint256",
          "name": "_tokenId",
          "type": "uint256"
        }
      ],
      "name": "MetadataUpdate",
      "type": "event"
    },
    {
      "anonymous": false,
      "inputs": [
        {
          "indexed": true,
          "internalType": "address",
          "name": "previousOwner",
          "type": "address"
        },
        {
          "indexed": true,
          "internalType": "address",
          "name": "newOwner",
          "type": "address"
        }
      ],
      "name": "OwnershipTransferred",
      "type": "event"
    },
    {
      "anonymous": false,
      "inputs": [
        {
          "indexed": true,
          "internalType": "address",
          "name": "from",
          "type": "address"
        },
        {
          "indexed": true,
          "internalType": "address",
          "name": "to",
          "type": "address"
        },
        {
          "indexed": true,
          "internalType": "uint256",
          "name": "tokenId",
          "type": "uint256"
        }
      ],
      "name": "Transfer",
      "type": "event"
    },
    {
      "inputs": [],
      "name": "_nextTokenId",
      "outputs": [
        {
          "internalType": "uint256",
          "name": "",
          "type": "uint256"
        }
      ],
      "stateMutability": "view",
      "type": "function"
    },
    {
      "inputs": [
        {
          "internalType": "address",
          "name": "to",
          "type": "address"
        },
        {
          "internalType": "uint256",
          "name": "tokenId",
          "type": "uint256"
        }
      ],
      "name": "approve",
      "outputs": [],
      "stateMutability": "nonpayable",
      "type": "function"
    },
    {
      "inputs": [
        {
          "internalType": "address",
          "name": "owner",
          "type": "address"
        }
      ],
      "name": "balanceOf",
      "outputs": [
        {
          "internalType": "uint256",
          "name": "",
          "type": "uint256"
        }
      ],
      "stateMutability": "view",
      "type": "function"
    },
    {
      "inputs": [
        {
          "internalType": "uint256",
          "name": "tokenId",
          "type": "uint256"
        }
      ],
      "name": "getApproved",
      "outputs": [
        {
          "internalType": "address",
          "name": "",
          "type": "address"
        }
      ],
      "stateMutability": "view",
      "type": "function"
    },
    {
      "inputs": [
        {
          "internalType": "address",
          "name": "owner",
          "type": "address"
        }
      ],
      "name": "getOwnedTokens",
      "outputs": [
        {
          "internalType": "uint256[]",
          "name": "",
          "type": "uint256[]"
        }
      ],
      "stateMutability": "view",
      "type": "function"
    },
    {
      "inputs": [
        {
          "internalType": "address",
          "name": "owner",
          "type": "address"
        }
      ],
      "name": "getTokenCount",
      "outputs": [
        {
          "internalType": "uint256",
          "name": "",
          "type": "uint256"
        }
      ],
      "stateMutability": "view",
      "type": "function"
    },
    {
      "inputs": [
        {
          "internalType": "uint256",
          "name": "tokenId",
          "type": "uint256"
        }
      ],
      "name": "getTokenURI",
      "outputs": [
        {
          "internalType": "string",
          "name": "",
          "type": "string"
        }
      ],
      "stateMutability": "view",
      "type": "function"
    },
    {
      "inputs": [
        {
          "internalType": "address",
          "name": "owner",
          "type": "address"
        },
        {
          "internalType": "address",
          "name": "operator",
          "type": "address"
        }
      ],
      "name": "isApprovedForAll",
      "outputs": [
        {
          "internalType": "bool",
          "name": "",
          "type": "bool"
        }
      ],
      "stateMutability": "view",
      "type": "function"
    },
    {
      "inputs": [],
      "name": "mintPrice",
      "outputs": [
        {
          "internalType": "uint256",
          "name": "",
          "type": "uint256"
        }
      ],
      "stateMutability": "view",
      "type": "function"
    },
    {
      "inputs": [],
      "name": "name",
      "outputs": [
        {
          "internalType": "string",
          "name": "",
          "type": "string"
        }
      ],
      "stateMutability": "view",
      "type": "function"
    },
    {
      "inputs": [
        {
          "internalType": "address",
          "name": "",
          "type": "address"
        },
        {
          "internalType": "uint256",
          "name": "",
          "type": "uint256"
        }
      ],
      "name": "ownedTokens",
      "outputs": [
        {
          "internalType": "uint256",
          "name": "",
          "type": "uint256"
        }
      ],
      "stateMutability": "view",
      "type": "function"
    },
    {
      "inputs": [],
      "name": "owner",
      "outputs": [
        {
          "internalType": "address",
          "name": "",
          "type": "address"
        }
      ],
      "stateMutability": "view",
      "type": "function"
    },
    {
      "inputs": [
        {
          "internalType": "uint256",
          "name": "tokenId",
          "type": "uint256"
        }
      ],
      "name": "ownerOf",
      "outputs": [
        {
          "internalType": "address",
          "name": "",
          "type": "address"
        }
      ],
      "stateMutability": "view",
      "type": "function"
    },
    {
      "inputs": [
        {
          "internalType": "address",
          "name": "recipient",
          "type": "address"
        },
        {
          "internalType": "string",
          "name": "metadataURI",
          "type": "string"
        }
      ],
      "name": "payToMint",
      "outputs": [
        {
          "internalType": "uint256",
          "name": "",
          "type": "uint256"
        }
      ],
      "stateMutability": "payable",
      "type": "function"
    },
    {
      "inputs": [],
      "name": "renounceOwnership",
      "outputs": [],
      "stateMutability": "nonpayable",
      "type": "function"
    },
    {
      "inputs": [
        {
          "internalType": "address",
          "name": "to",
          "type": "address"
        },
        {
          "internalType": "string",
          "name": "uri",
          "type": "string"
        }
      ],
      "name": "safeMint",
      "outputs": [],
      "stateMutability": "nonpayable",
      "type": "function"
    },
    {
      "inputs": [
        {
          "internalType": "address",
          "name": "from",
          "type": "address"
        },
        {
          "internalType": "address",
          "name": "to",
          "type": "address"
        },
        {
          "internalType": "uint256",
          "name": "tokenId",
          "type": "uint256"
        }
      ],
      "name": "safeTransferFrom",
      "outputs": [],
      "stateMutability": "nonpayable",
      "type": "function"
    },
    {
      "inputs": [
        {
          "internalType": "address",
          "name": "from",
          "type": "address"
        },
        {
          "internalType": "address",
          "name": "to",
          "type": "address"
        },
        {
          "internalType": "uint256",
          "name": "tokenId",
          "type": "uint256"
        },
        {
          "internalType": "bytes",
          "name": "data",
          "type": "bytes"
        }
      ],
      "name": "safeTransferFrom",
      "outputs": [],
      "stateMutability": "nonpayable",
      "type": "function"
    },
    {
      "inputs": [
        {
          "internalType": "address",
          "name": "operator",
          "type": "address"
        },
        {
          "internalType": "bool",
          "name": "approved",
          "type": "bool"
        }
      ],
      "name": "setApprovalForAll",
      "outputs": [],
      "stateMutability": "nonpayable",
      "type": "function"
    },
    {
      "inputs": [
        {
          "internalType": "uint256",
          "name": "price",
          "type": "uint256"
        }
      ],
      "name": "setMintPrice",
      "outputs": [],
      "stateMutability": "nonpayable",
      "type": "function"
    },
    {
      "inputs": [
        {
          "internalType": "bytes4",
          "name": "interfaceId",
          "type": "bytes4"
        }
      ],
      "name": "supportsInterface",
      "outputs": [
        {
          "internalType": "bool",
          "name": "",
          "type": "bool"
        }
      ],
      "stateMutability": "view",
      "type": "function"
    },
    {
      "inputs": [],
      "name": "symbol",
      "outputs": [
        {
          "internalType": "string",
          "name": "",
          "type": "string"
        }
      ],
      "stateMutability": "view",
      "type": "function"
    },
    {
      "inputs": [
        {
          "internalType": "uint256",
          "name": "tokenId",
          "type": "uint256"
        }
      ],
      "name": "tokenURI",
      "outputs": [
        {
          "internalType": "string",
          "name": "",
          "type": "string"
        }
      ],
      "stateMutability": "view",
      "type": "function"
    },
    {
      "inputs": [
        {
          "internalType": "uint256",
          "name": "",
          "type": "uint256"
        }
      ],
      "name": "tokenURIs",
      "outputs": [
        {
          "internalType": "string",
          "name": "",
          "type": "string"
        }
      ],
      "stateMutability": "view",
      "type": "function"
    },
    {
      "inputs": [
        {
          "internalType": "address",
          "name": "owner",
          "type": "address"
        }
      ],
      "name": "tokensURIsOfOwner",
      "outputs": [
        {
          "internalType": "string[]",
          "name": "",
          "type": "string[]"
        }
      ],
      "stateMutability": "view",
      "type": "function"
    },
    {
      "inputs": [
        {
          "internalType": "address",
          "name": "from",
          "type": "address"
        },
        {
          "internalType": "address",
          "name": "to",
          "type": "address"
        },
        {
          "internalType": "uint256",
          "name": "tokenId",
          "type": "uint256"
        }
      ],
      "name": "transferFrom",
      "outputs": [],
      "stateMutability": "nonpayable",
      "type": "function"
    },
    {
      "inputs": [
        {
          "internalType": "address",
          "name": "newOwner",
          "type": "address"
        }
      ],
      "name": "transferOwnership",
      "outputs": [],
      "stateMutability": "nonpayable",
      "type": "function"
    }
  ],
  "bytecode": "0x60806040523480156200001157600080fd5b506040516200374338038062003743833981810160405281019062000037919062000295565b806040518060400160405280600b81526020017f46757475726543657274580000000000000000000000000000000000000000008152506040518060400160405280600381526020017f46435800000000000000000000000000000000000000000000000000000000008152508160009081620000b5919062000541565b508060019081620000c7919062000541565b505050600073ffffffffffffffffffffffffffffffffffffffff168173ffffffffffffffffffffffffffffffffffffffff16036200013f5760006040517f1e4fbdf700000000000000000000000000000000000000000000000000000000815260040162000136919062000639565b60405180910390fd5b62000150816200016560201b60201c565b50655af3107a40006009819055505062000656565b6000600760009054906101000a900473ffffffffffffffffffffffffffffffffffffffff16905081600760006101000a81548173ffffffffffffffffffffffffffffffffffffffff021916908373ffffffffffffffffffffffffffffffffffffffff1602179055508173ffffffffffffffffffffffffffffffffffffffff168173ffffffffffffffffffffffffffffffffffffffff167f8be0079c531659141344cd1fd0a4f28419497f9722a3daafe3b4186f6b6457e060405160405180910390a35050565b600080fd5b600073ffffffffffffffffffffffffffffffffffffffff82169050919050565b60006200025d8262000230565b9050919050565b6200026f8162000250565b81146200027b57600080fd5b50565b6000815190506200028f8162000264565b92915050565b600060208284031215620002ae57620002ad6200022b565b5b6000620002be848285016200027e565b91505092915050565b600081519050919050565b7f4e487b7100000000000000000000000000000000000000000000000000000000600052604160045260246000fd5b7f4e487b7100000000000000000000000000000000000000000000000000000000600052602260045260246000fd5b600060028204905060018216806200034957607f821691505b6020821081036200035f576200035e62000301565b5b50919050565b60008190508160005260206000209050919050565b60006020601f8301049050919050565b600082821b905092915050565b600060088302620003c97fffffffffffffffffffffffffffffffffffffffffffffffffffffffffffffffff826200038a565b620003d586836200038a565b95508019841693508086168417925050509392505050565b6000819050919050565b6000819050919050565b6000620004226200041c6200041684620003ed565b620003f7565b620003ed565b9050919050565b6000819050919050565b6200043e8362000401565b620004566200044d8262000429565b84845462000397565b825550505050565b600090565b6200046d6200045e565b6200047a81848462000433565b505050565b5b81811015620004a2576200049660008262000463565b60018101905062000480565b5050565b601f821115620004f157620004bb8162000365565b620004c6846200037a565b81016020851015620004d6578190505b620004ee620004e5856200037a565b8301826200047f565b50505b505050565b600082821c905092915050565b60006200051660001984600802620004f6565b1980831691505092915050565b600062000531838362000503565b9150826002028217905092915050565b6200054c82620002c7565b67ffffffffffffffff811115620005685762000567620002d2565b5b62000574825462000330565b62000581828285620004a6565b600060209050601f831160018114620005b95760008415620005a4578287015190505b620005b0858262000523565b86555062000620565b601f198416620005c98662000365565b60005b82811015620005f357848901518255600182019150602085019450602081019050620005cc565b868310156200061357848901516200060f601f89168262000503565b8355505b6001600288020188555050505b505050505050565b620006338162000250565b82525050565b600060208201905062000650600083018462000628565b92915050565b6130dd80620006666000396000f3fe60806040526004361061019c5760003560e01c8063715018a6116100ec578063c87b56dd1161008a578063e149f03611610064578063e149f03614610617578063e985e9c514610654578063f2fde38b14610691578063f4a0a528146106ba5761019c565b8063c87b56dd14610574578063d204c45e146105b1578063d9d61655146105da5761019c565b806395d89b41116100c657806395d89b41146104ba578063a22cb465146104e5578063a9466bd31461050e578063b88d4fde1461054b5761019c565b8063715018a61461043b57806376727fa3146104525780638da5cb5b1461048f5761019c565b806342842e0e116101595780636352211e116101335780636352211e146103595780636817c76c146103965780636c8b703f146103c157806370a08231146103fe5761019c565b806342842e0e146102d55780634a60f620146102fe578063615fd9e2146103295761019c565b806301ffc9a7146101a157806306fdde03146101de578063081812fc14610209578063095ea7b31461024657806323b872dd1461026f5780633bb3a24d14610298575b600080fd5b3480156101ad57600080fd5b506101c860048036038101906101c391906121de565b6106e3565b6040516101d59190612226565b60405180910390f35b3480156101ea57600080fd5b506101f36106f5565b60405161020091906122d1565b60405180910390f35b34801561021557600080fd5b50610230600480360381019061022b9190612329565b610787565b60405161023d9190612397565b60405180910390f35b34801561025257600080fd5b5061026d600480360381019061026891906123de565b6107a3565b005b34801561027b57600080fd5b506102966004803603810190610291919061241e565b6107b9565b005b3480156102a457600080fd5b506102bf60048036038101906102ba9190612329565b6108bb565b6040516102cc91906122d1565b60405180910390f35b3480156102e157600080fd5b506102fc60048036038101906102f7919061241e565b6108cd565b005b34801561030a57600080fd5b506103136108ed565b6040516103209190612480565b60405180910390f35b610343600480360381019061033e91906125d0565b6108f3565b6040516103509190612480565b60405180910390f35b34801561036557600080fd5b50610380600480360381019061037b9190612329565b6109d6565b60405161038d9190612397565b60405180910390f35b3480156103a257600080fd5b506103ab6109e8565b6040516103b89190612480565b60405180910390f35b3480156103cd57600080fd5b506103e860048036038101906103e39190612329565b6109ee565b6040516103f591906122d1565b60405180910390f35b34801561040a57600080fd5b506104256004803603810190610420919061262c565b610a8e565b6040516104329190612480565b60405180910390f35b34801561044757600080fd5b50610450610ad7565b005b34801561045e57600080fd5b506104796004803603810190610474919061262c565b610aeb565b6040516104869190612480565b60405180910390f35b34801561049b57600080fd5b506104a4610b34565b6040516104b19190612397565b60405180910390f35b3480156104c657600080fd5b506104cf610b5e565b6040516104dc91906122d1565b60405180910390f35b3480156104f157600080fd5b5061050c60048036038101906105079190612685565b610bf0565b005b34801561051a57600080fd5b506105356004803603810190610530919061262c565b610c06565b60405161054291906127d1565b60405180910390f35b34801561055757600080fd5b50610572600480360381019061056d9190612894565b610dc5565b005b34801561058057600080fd5b5061059b60048036038101906105969190612329565b610de2565b6040516105a891906122d1565b60405180910390f35b3480156105bd57600080fd5b506105d860048036038101906105d391906125d0565b610e41565b005b3480156105e657600080fd5b5061060160048036038101906105fc919061262c565b610e87565b60405161060e91906129d5565b60405180910390f35b34801561062357600080fd5b5061063e600480360381019061063991906123de565b610f1e565b60405161064b9190612480565b60405180910390f35b34801561066057600080fd5b5061067b600480360381019061067691906129f7565b610f4f565b6040516106889190612226565b60405180910390f35b34801561069d57600080fd5b506106b860048036038101906106b3919061262c565b610fe3565b005b3480156106c657600080fd5b506106e160048036038101906106dc9190612329565b611069565b005b60006106ee8261107b565b9050919050565b60606000805461070490612a66565b80601f016020809104026020016040519081016040528092919081815260200182805461073090612a66565b801561077d5780601f106107525761010080835404028352916020019161077d565b820191906000526020600020905b81548152906001019060200180831161076057829003601f168201915b5050505050905090565b6000610792826110dc565b5061079c82611164565b9050919050565b6107b582826107b06111a1565b6111a9565b5050565b600073ffffffffffffffffffffffffffffffffffffffff168273ffffffffffffffffffffffffffffffffffffffff160361082b5760006040517f64a0ae920000000000000000000000000000000000000000000000000000000081526004016108229190612397565b60405180910390fd5b600061083f838361083a6111a1565b6111bb565b90508373ffffffffffffffffffffffffffffffffffffffff168173ffffffffffffffffffffffffffffffffffffffff16146108b5578382826040517f64283d7b0000000000000000000000000000000000000000000000000000000081526004016108ac93929190612a97565b60405180910390fd5b50505050565b60606108c682610de2565b9050919050565b6108e883838360405180602001604052806000815250610dc5565b505050565b60085481565b600060095434101561093a576040517f08c379a000000000000000000000000000000000000000000000000000000000815260040161093190612b1a565b60405180910390fd5b600060085490506008600081548092919061095490612b69565b919050555061096384826113d5565b61096d81846114ce565b600a60008573ffffffffffffffffffffffffffffffffffffffff1673ffffffffffffffffffffffffffffffffffffffff16815260200190815260200160002060008154809291906109bd90612b69565b91905055506109cc848261152a565b8091505092915050565b60006109e1826110dc565b9050919050565b60095481565b600b6020528060005260406000206000915090508054610a0d90612a66565b80601f0160208091040260200160405190810160405280929190818152602001828054610a3990612a66565b8015610a865780601f10610a5b57610100808354040283529160200191610a86565b820191906000526020600020905b815481529060010190602001808311610a6957829003601f168201915b505050505081565b6000600a60008373ffffffffffffffffffffffffffffffffffffffff1673ffffffffffffffffffffffffffffffffffffffff168152602001908152602001600020549050919050565b610adf611594565b610ae9600061161b565b565b6000600a60008373ffffffffffffffffffffffffffffffffffffffff1673ffffffffffffffffffffffffffffffffffffffff168152602001908152602001600020549050919050565b6000600760009054906101000a900473ffffffffffffffffffffffffffffffffffffffff16905090565b606060018054610b6d90612a66565b80601f0160208091040260200160405190810160405280929190818152602001828054610b9990612a66565b8015610be65780601f10610bbb57610100808354040283529160200191610be6565b820191906000526020600020905b815481529060010190602001808311610bc957829003601f168201915b5050505050905090565b610c02610bfb6111a1565b83836116e1565b5050565b60606000600c60008473ffffffffffffffffffffffffffffffffffffffff1673ffffffffffffffffffffffffffffffffffffffff168152602001908152602001600020805480602002602001604051908101604052809291908181526020018280548015610c9357602002820191906000526020600020905b815481526020019060010190808311610c7f575b5050505050905060008151905060008167ffffffffffffffff811115610cbc57610cbb6124a5565b5b604051908082528060200260200182016040528015610cef57816020015b6060815260200190600190039081610cda5790505b50905060008214610d6b5760005b82811015610d5f576000848281518110610d1a57610d19612bb1565b5b60200260200101519050610d2d81610de2565b838381518110610d4057610d3f612bb1565b5b6020026020010181905250508080610d5790612b69565b915050610cfd565b50809350505050610dc0565b600067ffffffffffffffff811115610d8657610d856124a5565b5b604051908082528060200260200182016040528015610db957816020015b6060815260200190600190039081610da45790505b5093505050505b919050565b610dd08484846107b9565b610ddc84848484611850565b50505050565b60606000610dee611a07565b90506000815111610e0e5760405180602001604052806000815250610e39565b80610e1884611a44565b604051602001610e29929190612cb4565b6040516020818303038152906040525b915050919050565b610e49611594565b600060086000815480929190610e5e90612b69565b919050559050610e6e8382611b12565b610e78838261152a565b610e8281836114ce565b505050565b6060600c60008373ffffffffffffffffffffffffffffffffffffffff1673ffffffffffffffffffffffffffffffffffffffff168152602001908152602001600020805480602002602001604051908101604052809291908181526020018280548015610f1257602002820191906000526020600020905b815481526020019060010190808311610efe575b50505050509050919050565b600c6020528160005260406000208181548110610f3a57600080fd5b90600052602060002001600091509150505481565b6000600560008473ffffffffffffffffffffffffffffffffffffffff1673ffffffffffffffffffffffffffffffffffffffff16815260200190815260200160002060008373ffffffffffffffffffffffffffffffffffffffff1673ffffffffffffffffffffffffffffffffffffffff16815260200190815260200160002060009054906101000a900460ff16905092915050565b610feb611594565b600073ffffffffffffffffffffffffffffffffffffffff168173ffffffffffffffffffffffffffffffffffffffff160361105d5760006040517f1e4fbdf70000000000000000000000000000000000000000000000000000000081526004016110549190612397565b60405180910390fd5b6110668161161b565b50565b611071611594565b8060098190555050565b6000634906490660e01b7bffffffffffffffffffffffffffffffffffffffffffffffffffffffff1916827bffffffffffffffffffffffffffffffffffffffffffffffffffffffff191614806110d557506110d482611b30565b5b9050919050565b6000806110e883611c12565b9050600073ffffffffffffffffffffffffffffffffffffffff168173ffffffffffffffffffffffffffffffffffffffff160361115b57826040517f7e2732890000000000000000000000000000000000000000000000000000000081526004016111529190612480565b60405180910390fd5b80915050919050565b60006004600083815260200190815260200160002060009054906101000a900473ffffffffffffffffffffffffffffffffffffffff169050919050565b600033905090565b6111b68383836001611c4f565b505050565b6000806111c784611c12565b9050600073ffffffffffffffffffffffffffffffffffffffff168373ffffffffffffffffffffffffffffffffffffffff161461120957611208818486611e14565b5b600073ffffffffffffffffffffffffffffffffffffffff168173ffffffffffffffffffffffffffffffffffffffff161461129a5761124b600085600080611c4f565b6001600360008373ffffffffffffffffffffffffffffffffffffffff1673ffffffffffffffffffffffffffffffffffffffff168152602001908152602001600020600082825403925050819055505b600073ffffffffffffffffffffffffffffffffffffffff168573ffffffffffffffffffffffffffffffffffffffff161461131d576001600360008773ffffffffffffffffffffffffffffffffffffffff1673ffffffffffffffffffffffffffffffffffffffff168152602001908152602001600020600082825401925050819055505b846002600086815260200190815260200160002060006101000a81548173ffffffffffffffffffffffffffffffffffffffff021916908373ffffffffffffffffffffffffffffffffffffffff160217905550838573ffffffffffffffffffffffffffffffffffffffff168273ffffffffffffffffffffffffffffffffffffffff167fddf252ad1be2c89b69c2b068fc378daa952ba7f163c4a11628f55a4df523b3ef60405160405180910390a4809150509392505050565b600073ffffffffffffffffffffffffffffffffffffffff168273ffffffffffffffffffffffffffffffffffffffff16036114475760006040517f64a0ae9200000000000000000000000000000000000000000000000000000000815260040161143e9190612397565b60405180910390fd5b6000611455838360006111bb565b9050600073ffffffffffffffffffffffffffffffffffffffff168173ffffffffffffffffffffffffffffffffffffffff16146114c95760006040517f73c6ac6e0000000000000000000000000000000000000000000000000000000081526004016114c09190612397565b60405180910390fd5b505050565b806006600084815260200190815260200160002090816114ee9190612e9a565b507ff8e1a15aba9398e019f0b49df1a4fde98ee17ae345cb5f6b5e2c27f5033e8ce78260405161151e9190612480565b60405180910390a15050565b600c60008373ffffffffffffffffffffffffffffffffffffffff1673ffffffffffffffffffffffffffffffffffffffff1681526020019081526020016000208190806001815401808255809150506001900390600052602060002001600090919091909150555050565b61159c6111a1565b73ffffffffffffffffffffffffffffffffffffffff166115ba610b34565b73ffffffffffffffffffffffffffffffffffffffff1614611619576115dd6111a1565b6040517f118cdaa70000000000000000000000000000000000000000000000000000000081526004016116109190612397565b60405180910390fd5b565b6000600760009054906101000a900473ffffffffffffffffffffffffffffffffffffffff16905081600760006101000a81548173ffffffffffffffffffffffffffffffffffffffff021916908373ffffffffffffffffffffffffffffffffffffffff1602179055508173ffffffffffffffffffffffffffffffffffffffff168173ffffffffffffffffffffffffffffffffffffffff167f8be0079c531659141344cd1fd0a4f28419497f9722a3daafe3b4186f6b6457e060405160405180910390a35050565b600073ffffffffffffffffffffffffffffffffffffffff168273ffffffffffffffffffffffffffffffffffffffff160361175257816040517f5b08ba180000000000000000000000000000000000000000000000000000000081526004016117499190612397565b60405180910390fd5b80600560008573ffffffffffffffffffffffffffffffffffffffff1673ffffffffffffffffffffffffffffffffffffffff16815260200190815260200160002060008473ffffffffffffffffffffffffffffffffffffffff1673ffffffffffffffffffffffffffffffffffffffff16815260200190815260200160002060006101000a81548160ff0219169083151502179055508173ffffffffffffffffffffffffffffffffffffffff168373ffffffffffffffffffffffffffffffffffffffff167f17307eab39ab6107e8899845ad3d59bd9653f200f220920489ca2b5937696c31836040516118439190612226565b60405180910390a3505050565b60008373ffffffffffffffffffffffffffffffffffffffff163b1115611a01578273ffffffffffffffffffffffffffffffffffffffff1663150b7a026118946111a1565b8685856040518563ffffffff1660e01b81526004016118b69493929190612fc1565b6020604051808303816000875af19250505080156118f257506040513d601f19601f820116820180604052508101906118ef9190613022565b60015b611976573d8060008114611922576040519150601f19603f3d011682016040523d82523d6000602084013e611927565b606091505b50600081510361196e57836040517f64a0ae920000000000000000000000000000000000000000000000000000000081526004016119659190612397565b60405180910390fd5b805181602001fd5b63150b7a0260e01b7bffffffffffffffffffffffffffffffffffffffffffffffffffffffff1916817bffffffffffffffffffffffffffffffffffffffffffffffffffffffff1916146119ff57836040517f64a0ae920000000000000000000000000000000000000000000000000000000081526004016119f69190612397565b60405180910390fd5b505b50505050565b60606040518060400160405280600781526020017f697066733a2f2f00000000000000000000000000000000000000000000000000815250905090565b606060006001611a5384611ed8565b01905060008167ffffffffffffffff811115611a7257611a716124a5565b5b6040519080825280601f01601f191660200182016040528015611aa45781602001600182028036833780820191505090505b509050600082602001820190505b600115611b07578080600190039150507f3031323334353637383961626364656600000000000000000000000000000000600a86061a8153600a8581611afb57611afa61304f565b5b04945060008503611ab2575b819350505050919050565b611b2c82826040518060200160405280600081525061202b565b5050565b60007f80ac58cd000000000000000000000000000000000000000000000000000000007bffffffffffffffffffffffffffffffffffffffffffffffffffffffff1916827bffffffffffffffffffffffffffffffffffffffffffffffffffffffff19161480611bfb57507f5b5e139f000000000000000000000000000000000000000000000000000000007bffffffffffffffffffffffffffffffffffffffffffffffffffffffff1916827bffffffffffffffffffffffffffffffffffffffffffffffffffffffff1916145b80611c0b5750611c0a82612047565b5b9050919050565b60006002600083815260200190815260200160002060009054906101000a900473ffffffffffffffffffffffffffffffffffffffff169050919050565b8080611c885750600073ffffffffffffffffffffffffffffffffffffffff168273ffffffffffffffffffffffffffffffffffffffff1614155b15611dbc576000611c98846110dc565b9050600073ffffffffffffffffffffffffffffffffffffffff168373ffffffffffffffffffffffffffffffffffffffff1614158015611d0357508273ffffffffffffffffffffffffffffffffffffffff168173ffffffffffffffffffffffffffffffffffffffff1614155b8015611d165750611d148184610f4f565b155b15611d5857826040517fa9fbf51f000000000000000000000000000000000000000000000000000000008152600401611d4f9190612397565b60405180910390fd5b8115611dba57838573ffffffffffffffffffffffffffffffffffffffff168273ffffffffffffffffffffffffffffffffffffffff167f8c5be1e5ebec7d5bd14f71427d1e84f3dd0314c0f7b2291e5b200ac8c7c3b92560405160405180910390a45b505b836004600085815260200190815260200160002060006101000a81548173ffffffffffffffffffffffffffffffffffffffff021916908373ffffffffffffffffffffffffffffffffffffffff16021790555050505050565b611e1f8383836120b1565b611ed357600073ffffffffffffffffffffffffffffffffffffffff168373ffffffffffffffffffffffffffffffffffffffff1603611e9457806040517f7e273289000000000000000000000000000000000000000000000000000000008152600401611e8b9190612480565b60405180910390fd5b81816040517f177e802f000000000000000000000000000000000000000000000000000000008152600401611eca92919061307e565b60405180910390fd5b505050565b600080600090507a184f03e93ff9f4daa797ed6e38ed64bf6a1f0100000000000000008310611f36577a184f03e93ff9f4daa797ed6e38ed64bf6a1f0100000000000000008381611f2c57611f2b61304f565b5b0492506040810190505b6d04ee2d6d415b85acef81000000008310611f73576d04ee2d6d415b85acef81000000008381611f6957611f6861304f565b5b0492506020810190505b662386f26fc100008310611fa257662386f26fc100008381611f9857611f9761304f565b5b0492506010810190505b6305f5e1008310611fcb576305f5e1008381611fc157611fc061304f565b5b0492506008810190505b6127108310611ff0576127108381611fe657611fe561304f565b5b0492506004810190505b6064831061201357606483816120095761200861304f565b5b0492506002810190505b600a8310612022576001810190505b80915050919050565b61203583836113d5565b6120426000848484611850565b505050565b60007f01ffc9a7000000000000000000000000000000000000000000000000000000007bffffffffffffffffffffffffffffffffffffffffffffffffffffffff1916827bffffffffffffffffffffffffffffffffffffffffffffffffffffffff1916149050919050565b60008073ffffffffffffffffffffffffffffffffffffffff168373ffffffffffffffffffffffffffffffffffffffff161415801561216957508273ffffffffffffffffffffffffffffffffffffffff168473ffffffffffffffffffffffffffffffffffffffff16148061212a57506121298484610f4f565b5b8061216857508273ffffffffffffffffffffffffffffffffffffffff1661215083611164565b73ffffffffffffffffffffffffffffffffffffffff16145b5b90509392505050565b6000604051905090565b600080fd5b600080fd5b60007fffffffff0000000000000000000000000000000000000000000000000000000082169050919050565b6121bb81612186565b81146121c657600080fd5b50565b6000813590506121d8816121b2565b92915050565b6000602082840312156121f4576121f361217c565b5b6000612202848285016121c9565b91505092915050565b60008115159050919050565b6122208161220b565b82525050565b600060208201905061223b6000830184612217565b92915050565b600081519050919050565b600082825260208201905092915050565b60005b8381101561227b578082015181840152602081019050612260565b60008484015250505050565b6000601f19601f8301169050919050565b60006122a382612241565b6122ad818561224c565b93506122bd81856020860161225d565b6122c681612287565b840191505092915050565b600060208201905081810360008301526122eb8184612298565b905092915050565b6000819050919050565b612306816122f3565b811461231157600080fd5b50565b600081359050612323816122fd565b92915050565b60006020828403121561233f5761233e61217c565b5b600061234d84828501612314565b91505092915050565b600073ffffffffffffffffffffffffffffffffffffffff82169050919050565b600061238182612356565b9050919050565b61239181612376565b82525050565b60006020820190506123ac6000830184612388565b92915050565b6123bb81612376565b81146123c657600080fd5b50565b6000813590506123d8816123b2565b92915050565b600080604083850312156123f5576123f461217c565b5b6000612403858286016123c9565b925050602061241485828601612314565b9150509250929050565b6000806000606084860312156124375761243661217c565b5b6000612445868287016123c9565b9350506020612456868287016123c9565b925050604061246786828701612314565b9150509250925092565b61247a816122f3565b82525050565b60006020820190506124956000830184612471565b92915050565b600080fd5b600080fd5b7f4e487b7100000000000000000000000000000000000000000000000000000000600052604160045260246000fd5b6124dd82612287565b810181811067ffffffffffffffff821117156124fc576124fb6124a5565b5b80604052505050565b600061250f612172565b905061251b82826124d4565b919050565b600067ffffffffffffffff82111561253b5761253a6124a5565b5b61254482612287565b9050602081019050919050565b82818337600083830152505050565b600061257361256e84612520565b612505565b90508281526020810184848401111561258f5761258e6124a0565b5b61259a848285612551565b509392505050565b600082601f8301126125b7576125b661249b565b5b81356125c7848260208601612560565b91505092915050565b600080604083850312156125e7576125e661217c565b5b60006125f5858286016123c9565b925050602083013567ffffffffffffffff81111561261657612615612181565b5b612622858286016125a2565b9150509250929050565b6000602082840312156126425761264161217c565b5b6000612650848285016123c9565b91505092915050565b6126628161220b565b811461266d57600080fd5b50565b60008135905061267f81612659565b92915050565b6000806040838503121561269c5761269b61217c565b5b60006126aa858286016123c9565b92505060206126bb85828601612670565b9150509250929050565b600081519050919050565b600082825260208201905092915050565b6000819050602082019050919050565b600082825260208201905092915050565b600061270d82612241565b61271781856126f1565b935061272781856020860161225d565b61273081612287565b840191505092915050565b60006127478383612702565b905092915050565b6000602082019050919050565b6000612767826126c5565b61277181856126d0565b935083602082028501612783856126e1565b8060005b858110156127bf57848403895281516127a0858261273b565b94506127ab8361274f565b925060208a01995050600181019050612787565b50829750879550505050505092915050565b600060208201905081810360008301526127eb818461275c565b905092915050565b600067ffffffffffffffff82111561280e5761280d6124a5565b5b61281782612287565b9050602081019050919050565b6000612837612832846127f3565b612505565b905082815260208101848484011115612853576128526124a0565b5b61285e848285612551565b509392505050565b600082601f83011261287b5761287a61249b565b5b813561288b848260208601612824565b91505092915050565b600080600080608085870312156128ae576128ad61217c565b5b60006128bc878288016123c9565b94505060206128cd878288016123c9565b93505060406128de87828801612314565b925050606085013567ffffffffffffffff8111156128ff576128fe612181565b5b61290b87828801612866565b91505092959194509250565b600081519050919050565b600082825260208201905092915050565b6000819050602082019050919050565b61294c816122f3565b82525050565b600061295e8383612943565b60208301905092915050565b6000602082019050919050565b600061298282612917565b61298c8185612922565b935061299783612933565b8060005b838110156129c85781516129af8882612952565b97506129ba8361296a565b92505060018101905061299b565b5085935050505092915050565b600060208201905081810360008301526129ef8184612977565b905092915050565b60008060408385031215612a0e57612a0d61217c565b5b6000612a1c858286016123c9565b9250506020612a2d858286016123c9565b9150509250929050565b7f4e487b7100000000000000000000000000000000000000000000000000000000600052602260045260246000fd5b60006002820490506001821680612a7e57607f821691505b602082108103612a9157612a90612a37565b5b50919050565b6000606082019050612aac6000830186612388565b612ab96020830185612471565b612ac66040830184612388565b949350505050565b7f496e73756666696369656e74206372656469747320746f206365727466792100600082015250565b6000612b04601f8361224c565b9150612b0f82612ace565b602082019050919050565b60006020820190508181036000830152612b3381612af7565b9050919050565b7f4e487b7100000000000000000000000000000000000000000000000000000000600052601160045260246000fd5b6000612b74826122f3565b91507fffffffffffffffffffffffffffffffffffffffffffffffffffffffffffffffff8203612ba657612ba5612b3a565b5b600182019050919050565b7f4e487b7100000000000000000000000000000000000000000000000000000000600052603260045260246000fd5b600081905092915050565b6000612bf682612241565b612c008185612be0565b9350612c1081856020860161225d565b80840191505092915050565b7f6369642f00000000000000000000000000000000000000000000000000000000600082015250565b6000612c52600483612be0565b9150612c5d82612c1c565b600482019050919050565b7f2e6a736f6e000000000000000000000000000000000000000000000000000000600082015250565b6000612c9e600583612be0565b9150612ca982612c68565b600582019050919050565b6000612cc08285612beb565b9150612ccb82612c45565b9150612cd78284612beb565b9150612ce282612c91565b91508190509392505050565b60008190508160005260206000209050919050565b60006020601f8301049050919050565b600082821b905092915050565b600060088302612d507fffffffffffffffffffffffffffffffffffffffffffffffffffffffffffffffff82612d13565b612d5a8683612d13565b95508019841693508086168417925050509392505050565b6000819050919050565b6000612d97612d92612d8d846122f3565b612d72565b6122f3565b9050919050565b6000819050919050565b612db183612d7c565b612dc5612dbd82612d9e565b848454612d20565b825550505050565b600090565b612dda612dcd565b612de5818484612da8565b505050565b5b81811015612e0957612dfe600082612dd2565b600181019050612deb565b5050565b601f821115612e4e57612e1f81612cee565b612e2884612d03565b81016020851015612e37578190505b612e4b612e4385612d03565b830182612dea565b50505b505050565b600082821c905092915050565b6000612e7160001984600802612e53565b1980831691505092915050565b6000612e8a8383612e60565b9150826002028217905092915050565b612ea382612241565b67ffffffffffffffff811115612ebc57612ebb6124a5565b5b612ec68254612a66565b612ed1828285612e0d565b600060209050601f831160018114612f045760008415612ef2578287015190505b612efc8582612e7e565b865550612f64565b601f198416612f1286612cee565b60005b82811015612f3a57848901518255600182019150602085019450602081019050612f15565b86831015612f575784890151612f53601f891682612e60565b8355505b6001600288020188555050505b505050505050565b600081519050919050565b600082825260208201905092915050565b6000612f9382612f6c565b612f9d8185612f77565b9350612fad81856020860161225d565b612fb681612287565b840191505092915050565b6000608082019050612fd66000830187612388565b612fe36020830186612388565b612ff06040830185612471565b81810360608301526130028184612f88565b905095945050505050565b60008151905061301c816121b2565b92915050565b6000602082840312156130385761303761217c565b5b60006130468482850161300d565b91505092915050565b7f4e487b7100000000000000000000000000000000000000000000000000000000600052601260045260246000fd5b60006040820190506130936000830185612388565b6130a06020830184612471565b939250505056fea26469706673582212200a4d787ab6aa106e6a1282b140e97309bd3a48c846f4f09b779c75c624273b0a64736f6c63430008140033",
  "linkReferences": {},
  "deployedLinkReferences": {}
}