{
  "_format": "hh-sol-artifact-1",
  "contractName": "FutureCertX",
  "sourceName": "contracts/FutureX.sol",
  "abi": [
    {
      "inputs": [
        {
          "internalType": "address",
          "name": "initialOwner",
          "type": "address"
        }
      ],
      "stateMutability": "nonpayable",
      "type": "constructor"
    },
    {
      "inputs": [
        {
          "internalType": "address",
          "name": "sender",
          "type": "address"
        },
        {
          "internalType": "uint256",
          "name": "tokenId",
          "type": "uint256"
        },
        {
          "internalType": "address",
          "name": "owner",
          "type": "address"
        }
      ],
      "name": "ERC721IncorrectOwner",
      "type": "error"
    },
    {
      "inputs": [
        {
          "internalType": "address",
          "name": "operator",
          "type": "address"
        },
        {
          "internalType": "uint256",
          "name": "tokenId",
          "type": "uint256"
        }
      ],
      "name": "ERC721InsufficientApproval",
      "type": "error"
    },
    {
      "inputs": [
        {
          "internalType": "address",
          "name": "approver",
          "type": "address"
        }
      ],
      "name": "ERC721InvalidApprover",
      "type": "error"
    },
    {
      "inputs": [
        {
          "internalType": "address",
          "name": "operator",
          "type": "address"
        }
      ],
      "name": "ERC721InvalidOperator",
      "type": "error"
    },
    {
      "inputs": [
        {
          "internalType": "address",
          "name": "owner",
          "type": "address"
        }
      ],
      "name": "ERC721InvalidOwner",
      "type": "error"
    },
    {
      "inputs": [
        {
          "internalType": "address",
          "name": "receiver",
          "type": "address"
        }
      ],
      "name": "ERC721InvalidReceiver",
      "type": "error"
    },
    {
      "inputs": [
        {
          "internalType": "address",
          "name": "sender",
          "type": "address"
        }
      ],
      "name": "ERC721InvalidSender",
      "type": "error"
    },
    {
      "inputs": [
        {
          "internalType": "uint256",
          "name": "tokenId",
          "type": "uint256"
        }
      ],
      "name": "ERC721NonexistentToken",
      "type": "error"
    },
    {
      "inputs": [
        {
          "internalType": "address",
          "name": "owner",
          "type": "address"
        }
      ],
      "name": "OwnableInvalidOwner",
      "type": "error"
    },
    {
      "inputs": [
        {
          "internalType": "address",
          "name": "account",
          "type": "address"
        }
      ],
      "name": "OwnableUnauthorizedAccount",
      "type": "error"
    },
    {
      "anonymous": false,
      "inputs": [
        {
          "indexed": true,
          "internalType": "address",
          "name": "owner",
          "type": "address"
        },
        {
          "indexed": true,
          "internalType": "address",
          "name": "approved",
          "type": "address"
        },
        {
          "indexed": true,
          "internalType": "uint256",
          "name": "tokenId",
          "type": "uint256"
        }
      ],
      "name": "Approval",
      "type": "event"
    },
    {
      "anonymous": false,
      "inputs": [
        {
          "indexed": true,
          "internalType": "address",
          "name": "owner",
          "type": "address"
        },
        {
          "indexed": true,
          "internalType": "address",
          "name": "operator",
          "type": "address"
        },
        {
          "indexed": false,
          "internalType": "bool",
          "name": "approved",
          "type": "bool"
        }
      ],
      "name": "ApprovalForAll",
      "type": "event"
    },
    {
      "anonymous": false,
      "inputs": [
        {
          "indexed": false,
          "internalType": "uint256",
          "name": "_fromTokenId",
          "type": "uint256"
        },
        {
          "indexed": false,
          "internalType": "uint256",
          "name": "_toTokenId",
          "type": "uint256"
        }
      ],
      "name": "BatchMetadataUpdate",
      "type": "event"
    },
    {
      "anonymous": false,
      "inputs": [
        {
          "indexed": false,
          "internalType": "uint256",
          "name": "_tokenId",
          "type": "uint256"
        }
      ],
      "name": "MetadataUpdate",
      "type": "event"
    },
    {
      "anonymous": false,
      "inputs": [
        {
          "indexed": true,
          "internalType": "address",
          "name": "previousOwner",
          "type": "address"
        },
        {
          "indexed": true,
          "internalType": "address",
          "name": "newOwner",
          "type": "address"
        }
      ],
      "name": "OwnershipTransferred",
      "type": "event"
    },
    {
      "anonymous": false,
      "inputs": [
        {
          "indexed": true,
          "internalType": "address",
          "name": "from",
          "type": "address"
        },
        {
          "indexed": true,
          "internalType": "address",
          "name": "to",
          "type": "address"
        },
        {
          "indexed": true,
          "internalType": "uint256",
          "name": "tokenId",
          "type": "uint256"
        }
      ],
      "name": "Transfer",
      "type": "event"
    },
    {
      "inputs": [],
      "name": "_nextTokenId",
      "outputs": [
        {
          "internalType": "uint256",
          "name": "",
          "type": "uint256"
        }
      ],
      "stateMutability": "view",
      "type": "function"
    },
    {
      "inputs": [
        {
          "internalType": "address",
          "name": "to",
          "type": "address"
        },
        {
          "internalType": "uint256",
          "name": "tokenId",
          "type": "uint256"
        }
      ],
      "name": "approve",
      "outputs": [],
      "stateMutability": "nonpayable",
      "type": "function"
    },
    {
      "inputs": [
        {
          "internalType": "address",
          "name": "owner",
          "type": "address"
        }
      ],
      "name": "balanceOf",
      "outputs": [
        {
          "internalType": "uint256",
          "name": "",
          "type": "uint256"
        }
      ],
      "stateMutability": "view",
      "type": "function"
    },
    {
      "inputs": [
        {
          "internalType": "uint256",
          "name": "tokenId",
          "type": "uint256"
        }
      ],
      "name": "getApproved",
      "outputs": [
        {
          "internalType": "address",
          "name": "",
          "type": "address"
        }
      ],
      "stateMutability": "view",
      "type": "function"
    },
    {
      "inputs": [
        {
          "internalType": "address",
          "name": "owner",
          "type": "address"
        }
      ],
      "name": "getOwnedTokens",
      "outputs": [
        {
          "internalType": "uint256[]",
          "name": "",
          "type": "uint256[]"
        }
      ],
      "stateMutability": "view",
      "type": "function"
    },
    {
      "inputs": [
        {
          "internalType": "address",
          "name": "owner",
          "type": "address"
        }
      ],
      "name": "getTokenCount",
      "outputs": [
        {
          "internalType": "uint256",
          "name": "",
          "type": "uint256"
        }
      ],
      "stateMutability": "view",
      "type": "function"
    },
    {
      "inputs": [
        {
          "internalType": "uint256",
          "name": "tokenId",
          "type": "uint256"
        }
      ],
      "name": "getTokenURI",
      "outputs": [
        {
          "internalType": "string",
          "name": "",
          "type": "string"
        }
      ],
      "stateMutability": "view",
      "type": "function"
    },
    {
      "inputs": [
        {
          "internalType": "address",
          "name": "owner",
          "type": "address"
        },
        {
          "internalType": "address",
          "name": "operator",
          "type": "address"
        }
      ],
      "name": "isApprovedForAll",
      "outputs": [
        {
          "internalType": "bool",
          "name": "",
          "type": "bool"
        }
      ],
      "stateMutability": "view",
      "type": "function"
    },
    {
      "inputs": [],
      "name": "mintPrice",
      "outputs": [
        {
          "internalType": "uint256",
          "name": "",
          "type": "uint256"
        }
      ],
      "stateMutability": "view",
      "type": "function"
    },
    {
      "inputs": [],
      "name": "name",
      "outputs": [
        {
          "internalType": "string",
          "name": "",
          "type": "string"
        }
      ],
      "stateMutability": "view",
      "type": "function"
    },
    {
      "inputs": [
        {
          "internalType": "address",
          "name": "",
          "type": "address"
        },
        {
          "internalType": "uint256",
          "name": "",
          "type": "uint256"
        }
      ],
      "name": "ownedTokens",
      "outputs": [
        {
          "internalType": "uint256",
          "name": "",
          "type": "uint256"
        }
      ],
      "stateMutability": "view",
      "type": "function"
    },
    {
      "inputs": [],
      "name": "owner",
      "outputs": [
        {
          "internalType": "address",
          "name": "",
          "type": "address"
        }
      ],
      "stateMutability": "view",
      "type": "function"
    },
    {
      "inputs": [
        {
          "internalType": "uint256",
          "name": "tokenId",
          "type": "uint256"
        }
      ],
      "name": "ownerOf",
      "outputs": [
        {
          "internalType": "address",
          "name": "",
          "type": "address"
        }
      ],
      "stateMutability": "view",
      "type": "function"
    },
    {
      "inputs": [
        {
          "internalType": "address",
          "name": "recipient",
          "type": "address"
        },
        {
          "internalType": "string",
          "name": "metadataURI",
          "type": "string"
        }
      ],
      "name": "payToMint",
      "outputs": [
        {
          "internalType": "uint256",
          "name": "",
          "type": "uint256"
        }
      ],
      "stateMutability": "payable",
      "type": "function"
    },
    {
      "inputs": [],
      "name": "renounceOwnership",
      "outputs": [],
      "stateMutability": "nonpayable",
      "type": "function"
    },
    {
      "inputs": [
        {
          "internalType": "address",
          "name": "to",
          "type": "address"
        },
        {
          "internalType": "string",
          "name": "uri",
          "type": "string"
        }
      ],
      "name": "safeMint",
      "outputs": [],
      "stateMutability": "nonpayable",
      "type": "function"
    },
    {
      "inputs": [
        {
          "internalType": "address",
          "name": "from",
          "type": "address"
        },
        {
          "internalType": "address",
          "name": "to",
          "type": "address"
        },
        {
          "internalType": "uint256",
          "name": "tokenId",
          "type": "uint256"
        }
      ],
      "name": "safeTransferFrom",
      "outputs": [],
      "stateMutability": "nonpayable",
      "type": "function"
    },
    {
      "inputs": [
        {
          "internalType": "address",
          "name": "from",
          "type": "address"
        },
        {
          "internalType": "address",
          "name": "to",
          "type": "address"
        },
        {
          "internalType": "uint256",
          "name": "tokenId",
          "type": "uint256"
        },
        {
          "internalType": "bytes",
          "name": "data",
          "type": "bytes"
        }
      ],
      "name": "safeTransferFrom",
      "outputs": [],
      "stateMutability": "nonpayable",
      "type": "function"
    },
    {
      "inputs": [
        {
          "internalType": "address",
          "name": "operator",
          "type": "address"
        },
        {
          "internalType": "bool",
          "name": "approved",
          "type": "bool"
        }
      ],
      "name": "setApprovalForAll",
      "outputs": [],
      "stateMutability": "nonpayable",
      "type": "function"
    },
    {
      "inputs": [
        {
          "internalType": "uint256",
          "name": "price",
          "type": "uint256"
        }
      ],
      "name": "setMintPrice",
      "outputs": [],
      "stateMutability": "nonpayable",
      "type": "function"
    },
    {
      "inputs": [
        {
          "internalType": "bytes4",
          "name": "interfaceId",
          "type": "bytes4"
        }
      ],
      "name": "supportsInterface",
      "outputs": [
        {
          "internalType": "bool",
          "name": "",
          "type": "bool"
        }
      ],
      "stateMutability": "view",
      "type": "function"
    },
    {
      "inputs": [],
      "name": "symbol",
      "outputs": [
        {
          "internalType": "string",
          "name": "",
          "type": "string"
        }
      ],
      "stateMutability": "view",
      "type": "function"
    },
    {
      "inputs": [
        {
          "internalType": "uint256",
          "name": "tokenId",
          "type": "uint256"
        }
      ],
      "name": "tokenURI",
      "outputs": [
        {
          "internalType": "string",
          "name": "",
          "type": "string"
        }
      ],
      "stateMutability": "view",
      "type": "function"
    },
    {
      "inputs": [
        {
          "internalType": "uint256",
          "name": "",
          "type": "uint256"
        }
      ],
      "name": "tokenURIs",
      "outputs": [
        {
          "internalType": "string",
          "name": "",
          "type": "string"
        }
      ],
      "stateMutability": "view",
      "type": "function"
    },
    {
      "inputs": [
        {
          "internalType": "address",
          "name": "owner",
          "type": "address"
        }
      ],
      "name": "tokensURIsOfOwner",
      "outputs": [
        {
          "internalType": "string[]",
          "name": "",
          "type": "string[]"
        }
      ],
      "stateMutability": "view",
      "type": "function"
    },
    {
      "inputs": [
        {
          "internalType": "address",
          "name": "from",
          "type": "address"
        },
        {
          "internalType": "address",
          "name": "to",
          "type": "address"
        },
        {
          "internalType": "uint256",
          "name": "tokenId",
          "type": "uint256"
        }
      ],
      "name": "transferFrom",
      "outputs": [],
      "stateMutability": "nonpayable",
      "type": "function"
    },
    {
      "inputs": [
        {
          "internalType": "address",
          "name": "newOwner",
          "type": "address"
        }
      ],
      "name": "transferOwnership",
      "outputs": [],
      "stateMutability": "nonpayable",
      "type": "function"
    }
  ],
  "bytecode": "0x60806040523480156200001157600080fd5b506040516200370338038062003703833981810160405281019062000037919062000295565b806040518060400160405280600b81526020017f46757475726543657274580000000000000000000000000000000000000000008152506040518060400160405280600381526020017f46435800000000000000000000000000000000000000000000000000000000008152508160009081620000b5919062000541565b508060019081620000c7919062000541565b505050600073ffffffffffffffffffffffffffffffffffffffff168173ffffffffffffffffffffffffffffffffffffffff16036200013f5760006040517f1e4fbdf700000000000000000000000000000000000000000000000000000000815260040162000136919062000639565b60405180910390fd5b62000150816200016560201b60201c565b50655af3107a40006009819055505062000656565b6000600760009054906101000a900473ffffffffffffffffffffffffffffffffffffffff16905081600760006101000a81548173ffffffffffffffffffffffffffffffffffffffff021916908373ffffffffffffffffffffffffffffffffffffffff1602179055508173ffffffffffffffffffffffffffffffffffffffff168173ffffffffffffffffffffffffffffffffffffffff167f8be0079c531659141344cd1fd0a4f28419497f9722a3daafe3b4186f6b6457e060405160405180910390a35050565b600080fd5b600073ffffffffffffffffffffffffffffffffffffffff82169050919050565b60006200025d8262000230565b9050919050565b6200026f8162000250565b81146200027b57600080fd5b50565b6000815190506200028f8162000264565b92915050565b600060208284031215620002ae57620002ad6200022b565b5b6000620002be848285016200027e565b91505092915050565b600081519050919050565b7f4e487b7100000000000000000000000000000000000000000000000000000000600052604160045260246000fd5b7f4e487b7100000000000000000000000000000000000000000000000000000000600052602260045260246000fd5b600060028204905060018216806200034957607f821691505b6020821081036200035f576200035e62000301565b5b50919050565b60008190508160005260206000209050919050565b60006020601f8301049050919050565b600082821b905092915050565b600060088302620003c97fffffffffffffffffffffffffffffffffffffffffffffffffffffffffffffffff826200038a565b620003d586836200038a565b95508019841693508086168417925050509392505050565b6000819050919050565b6000819050919050565b6000620004226200041c6200041684620003ed565b620003f7565b620003ed565b9050919050565b6000819050919050565b6200043e8362000401565b620004566200044d8262000429565b84845462000397565b825550505050565b600090565b6200046d6200045e565b6200047a81848462000433565b505050565b5b81811015620004a2576200049660008262000463565b60018101905062000480565b5050565b601f821115620004f157620004bb8162000365565b620004c6846200037a565b81016020851015620004d6578190505b620004ee620004e5856200037a565b8301826200047f565b50505b505050565b600082821c905092915050565b60006200051660001984600802620004f6565b1980831691505092915050565b600062000531838362000503565b9150826002028217905092915050565b6200054c82620002c7565b67ffffffffffffffff811115620005685762000567620002d2565b5b62000574825462000330565b62000581828285620004a6565b600060209050601f831160018114620005b95760008415620005a4578287015190505b620005b0858262000523565b86555062000620565b601f198416620005c98662000365565b60005b82811015620005f357848901518255600182019150602085019450602081019050620005cc565b868310156200061357848901516200060f601f89168262000503565b8355505b6001600288020188555050505b505050505050565b620006338162000250565b82525050565b600060208201905062000650600083018462000628565b92915050565b61309d80620006666000396000f3fe60806040526004361061019c5760003560e01c8063715018a6116100ec578063c87b56dd1161008a578063e149f03611610064578063e149f03614610617578063e985e9c514610654578063f2fde38b14610691578063f4a0a528146106ba5761019c565b8063c87b56dd14610574578063d204c45e146105b1578063d9d61655146105da5761019c565b806395d89b41116100c657806395d89b41146104ba578063a22cb465146104e5578063a9466bd31461050e578063b88d4fde1461054b5761019c565b8063715018a61461043b57806376727fa3146104525780638da5cb5b1461048f5761019c565b806342842e0e116101595780636352211e116101335780636352211e146103595780636817c76c146103965780636c8b703f146103c157806370a08231146103fe5761019c565b806342842e0e146102d55780634a60f620146102fe578063615fd9e2146103295761019c565b806301ffc9a7146101a157806306fdde03146101de578063081812fc14610209578063095ea7b31461024657806323b872dd1461026f5780633bb3a24d14610298575b600080fd5b3480156101ad57600080fd5b506101c860048036038101906101c391906121c1565b6106e3565b6040516101d59190612209565b60405180910390f35b3480156101ea57600080fd5b506101f36106f5565b60405161020091906122b4565b60405180910390f35b34801561021557600080fd5b50610230600480360381019061022b919061230c565b610787565b60405161023d919061237a565b60405180910390f35b34801561025257600080fd5b5061026d600480360381019061026891906123c1565b6107a3565b005b34801561027b57600080fd5b5061029660048036038101906102919190612401565b6107b9565b005b3480156102a457600080fd5b506102bf60048036038101906102ba919061230c565b6108bb565b6040516102cc91906122b4565b60405180910390f35b3480156102e157600080fd5b506102fc60048036038101906102f79190612401565b6108cd565b005b34801561030a57600080fd5b506103136108ed565b6040516103209190612463565b60405180910390f35b610343600480360381019061033e91906125b3565b6108f3565b6040516103509190612463565b60405180910390f35b34801561036557600080fd5b50610380600480360381019061037b919061230c565b6109d6565b60405161038d919061237a565b60405180910390f35b3480156103a257600080fd5b506103ab6109e8565b6040516103b89190612463565b60405180910390f35b3480156103cd57600080fd5b506103e860048036038101906103e3919061230c565b6109ee565b6040516103f591906122b4565b60405180910390f35b34801561040a57600080fd5b506104256004803603810190610420919061260f565b610a8e565b6040516104329190612463565b60405180910390f35b34801561044757600080fd5b50610450610ad7565b005b34801561045e57600080fd5b506104796004803603810190610474919061260f565b610aeb565b6040516104869190612463565b60405180910390f35b34801561049b57600080fd5b506104a4610b34565b6040516104b1919061237a565b60405180910390f35b3480156104c657600080fd5b506104cf610b5e565b6040516104dc91906122b4565b60405180910390f35b3480156104f157600080fd5b5061050c60048036038101906105079190612668565b610bf0565b005b34801561051a57600080fd5b506105356004803603810190610530919061260f565b610c06565b60405161054291906127b4565b60405180910390f35b34801561055757600080fd5b50610572600480360381019061056d9190612877565b610dc5565b005b34801561058057600080fd5b5061059b6004803603810190610596919061230c565b610de2565b6040516105a891906122b4565b60405180910390f35b3480156105bd57600080fd5b506105d860048036038101906105d391906125b3565b610e41565b005b3480156105e657600080fd5b5061060160048036038101906105fc919061260f565b610e87565b60405161060e91906129b8565b60405180910390f35b34801561062357600080fd5b5061063e600480360381019061063991906123c1565b610f1e565b60405161064b9190612463565b60405180910390f35b34801561066057600080fd5b5061067b600480360381019061067691906129da565b610f4f565b6040516106889190612209565b60405180910390f35b34801561069d57600080fd5b506106b860048036038101906106b3919061260f565b610fe3565b005b3480156106c657600080fd5b506106e160048036038101906106dc919061230c565b611069565b005b60006106ee8261107b565b9050919050565b60606000805461070490612a49565b80601f016020809104026020016040519081016040528092919081815260200182805461073090612a49565b801561077d5780601f106107525761010080835404028352916020019161077d565b820191906000526020600020905b81548152906001019060200180831161076057829003601f168201915b5050505050905090565b6000610792826110dc565b5061079c82611164565b9050919050565b6107b582826107b06111a1565b6111a9565b5050565b600073ffffffffffffffffffffffffffffffffffffffff168273ffffffffffffffffffffffffffffffffffffffff160361082b5760006040517f64a0ae92000000000000000000000000000000000000000000000000000000008152600401610822919061237a565b60405180910390fd5b600061083f838361083a6111a1565b6111bb565b90508373ffffffffffffffffffffffffffffffffffffffff168173ffffffffffffffffffffffffffffffffffffffff16146108b5578382826040517f64283d7b0000000000000000000000000000000000000000000000000000000081526004016108ac93929190612a7a565b60405180910390fd5b50505050565b60606108c682610de2565b9050919050565b6108e883838360405180602001604052806000815250610dc5565b505050565b60085481565b600060095434101561093a576040517f08c379a000000000000000000000000000000000000000000000000000000000815260040161093190612afd565b60405180910390fd5b600060085490506008600081548092919061095490612b4c565b919050555061096384826113d5565b61096d81846114ce565b600a60008573ffffffffffffffffffffffffffffffffffffffff1673ffffffffffffffffffffffffffffffffffffffff16815260200190815260200160002060008154809291906109bd90612b4c565b91905055506109cc848261152a565b8091505092915050565b60006109e1826110dc565b9050919050565b60095481565b600b6020528060005260406000206000915090508054610a0d90612a49565b80601f0160208091040260200160405190810160405280929190818152602001828054610a3990612a49565b8015610a865780601f10610a5b57610100808354040283529160200191610a86565b820191906000526020600020905b815481529060010190602001808311610a6957829003601f168201915b505050505081565b6000600a60008373ffffffffffffffffffffffffffffffffffffffff1673ffffffffffffffffffffffffffffffffffffffff168152602001908152602001600020549050919050565b610adf611594565b610ae9600061161b565b565b6000600a60008373ffffffffffffffffffffffffffffffffffffffff1673ffffffffffffffffffffffffffffffffffffffff168152602001908152602001600020549050919050565b6000600760009054906101000a900473ffffffffffffffffffffffffffffffffffffffff16905090565b606060018054610b6d90612a49565b80601f0160208091040260200160405190810160405280929190818152602001828054610b9990612a49565b8015610be65780601f10610bbb57610100808354040283529160200191610be6565b820191906000526020600020905b815481529060010190602001808311610bc957829003601f168201915b5050505050905090565b610c02610bfb6111a1565b83836116e1565b5050565b60606000600c60008473ffffffffffffffffffffffffffffffffffffffff1673ffffffffffffffffffffffffffffffffffffffff168152602001908152602001600020805480602002602001604051908101604052809291908181526020018280548015610c9357602002820191906000526020600020905b815481526020019060010190808311610c7f575b5050505050905060008151905060008167ffffffffffffffff811115610cbc57610cbb612488565b5b604051908082528060200260200182016040528015610cef57816020015b6060815260200190600190039081610cda5790505b50905060008214610d6b5760005b82811015610d5f576000848281518110610d1a57610d19612b94565b5b60200260200101519050610d2d81610de2565b838381518110610d4057610d3f612b94565b5b6020026020010181905250508080610d5790612b4c565b915050610cfd565b50809350505050610dc0565b600067ffffffffffffffff811115610d8657610d85612488565b5b604051908082528060200260200182016040528015610db957816020015b6060815260200190600190039081610da45790505b5093505050505b919050565b610dd08484846107b9565b610ddc84848484611850565b50505050565b60606000610dee611a07565b90506000815111610e0e5760405180602001604052806000815250610e39565b80610e1884611a27565b604051602001610e29929190612c4b565b6040516020818303038152906040525b915050919050565b610e49611594565b600060086000815480929190610e5e90612b4c565b919050559050610e6e8382611af5565b610e78838261152a565b610e8281836114ce565b505050565b6060600c60008373ffffffffffffffffffffffffffffffffffffffff1673ffffffffffffffffffffffffffffffffffffffff168152602001908152602001600020805480602002602001604051908101604052809291908181526020018280548015610f1257602002820191906000526020600020905b815481526020019060010190808311610efe575b50505050509050919050565b600c6020528160005260406000208181548110610f3a57600080fd5b90600052602060002001600091509150505481565b6000600560008473ffffffffffffffffffffffffffffffffffffffff1673ffffffffffffffffffffffffffffffffffffffff16815260200190815260200160002060008373ffffffffffffffffffffffffffffffffffffffff1673ffffffffffffffffffffffffffffffffffffffff16815260200190815260200160002060009054906101000a900460ff16905092915050565b610feb611594565b600073ffffffffffffffffffffffffffffffffffffffff168173ffffffffffffffffffffffffffffffffffffffff160361105d5760006040517f1e4fbdf7000000000000000000000000000000000000000000000000000000008152600401611054919061237a565b60405180910390fd5b6110668161161b565b50565b611071611594565b8060098190555050565b6000634906490660e01b7bffffffffffffffffffffffffffffffffffffffffffffffffffffffff1916827bffffffffffffffffffffffffffffffffffffffffffffffffffffffff191614806110d557506110d482611b13565b5b9050919050565b6000806110e883611bf5565b9050600073ffffffffffffffffffffffffffffffffffffffff168173ffffffffffffffffffffffffffffffffffffffff160361115b57826040517f7e2732890000000000000000000000000000000000000000000000000000000081526004016111529190612463565b60405180910390fd5b80915050919050565b60006004600083815260200190815260200160002060009054906101000a900473ffffffffffffffffffffffffffffffffffffffff169050919050565b600033905090565b6111b68383836001611c32565b505050565b6000806111c784611bf5565b9050600073ffffffffffffffffffffffffffffffffffffffff168373ffffffffffffffffffffffffffffffffffffffff161461120957611208818486611df7565b5b600073ffffffffffffffffffffffffffffffffffffffff168173ffffffffffffffffffffffffffffffffffffffff161461129a5761124b600085600080611c32565b6001600360008373ffffffffffffffffffffffffffffffffffffffff1673ffffffffffffffffffffffffffffffffffffffff168152602001908152602001600020600082825403925050819055505b600073ffffffffffffffffffffffffffffffffffffffff168573ffffffffffffffffffffffffffffffffffffffff161461131d576001600360008773ffffffffffffffffffffffffffffffffffffffff1673ffffffffffffffffffffffffffffffffffffffff168152602001908152602001600020600082825401925050819055505b846002600086815260200190815260200160002060006101000a81548173ffffffffffffffffffffffffffffffffffffffff021916908373ffffffffffffffffffffffffffffffffffffffff160217905550838573ffffffffffffffffffffffffffffffffffffffff168273ffffffffffffffffffffffffffffffffffffffff167fddf252ad1be2c89b69c2b068fc378daa952ba7f163c4a11628f55a4df523b3ef60405160405180910390a4809150509392505050565b600073ffffffffffffffffffffffffffffffffffffffff168273ffffffffffffffffffffffffffffffffffffffff16036114475760006040517f64a0ae9200000000000000000000000000000000000000000000000000000000815260040161143e919061237a565b60405180910390fd5b6000611455838360006111bb565b9050600073ffffffffffffffffffffffffffffffffffffffff168173ffffffffffffffffffffffffffffffffffffffff16146114c95760006040517f73c6ac6e0000000000000000000000000000000000000000000000000000000081526004016114c0919061237a565b60405180910390fd5b505050565b806006600084815260200190815260200160002090816114ee9190612e26565b507ff8e1a15aba9398e019f0b49df1a4fde98ee17ae345cb5f6b5e2c27f5033e8ce78260405161151e9190612463565b60405180910390a15050565b600c60008373ffffffffffffffffffffffffffffffffffffffff1673ffffffffffffffffffffffffffffffffffffffff1681526020019081526020016000208190806001815401808255809150506001900390600052602060002001600090919091909150555050565b61159c6111a1565b73ffffffffffffffffffffffffffffffffffffffff166115ba610b34565b73ffffffffffffffffffffffffffffffffffffffff1614611619576115dd6111a1565b6040517f118cdaa7000000000000000000000000000000000000000000000000000000008152600401611610919061237a565b60405180910390fd5b565b6000600760009054906101000a900473ffffffffffffffffffffffffffffffffffffffff16905081600760006101000a81548173ffffffffffffffffffffffffffffffffffffffff021916908373ffffffffffffffffffffffffffffffffffffffff1602179055508173ffffffffffffffffffffffffffffffffffffffff168173ffffffffffffffffffffffffffffffffffffffff167f8be0079c531659141344cd1fd0a4f28419497f9722a3daafe3b4186f6b6457e060405160405180910390a35050565b600073ffffffffffffffffffffffffffffffffffffffff168273ffffffffffffffffffffffffffffffffffffffff160361175257816040517f5b08ba18000000000000000000000000000000000000000000000000000000008152600401611749919061237a565b60405180910390fd5b80600560008573ffffffffffffffffffffffffffffffffffffffff1673ffffffffffffffffffffffffffffffffffffffff16815260200190815260200160002060008473ffffffffffffffffffffffffffffffffffffffff1673ffffffffffffffffffffffffffffffffffffffff16815260200190815260200160002060006101000a81548160ff0219169083151502179055508173ffffffffffffffffffffffffffffffffffffffff168373ffffffffffffffffffffffffffffffffffffffff167f17307eab39ab6107e8899845ad3d59bd9653f200f220920489ca2b5937696c31836040516118439190612209565b60405180910390a3505050565b60008373ffffffffffffffffffffffffffffffffffffffff163b1115611a01578273ffffffffffffffffffffffffffffffffffffffff1663150b7a026118946111a1565b8685856040518563ffffffff1660e01b81526004016118b69493929190612f4d565b6020604051808303816000875af19250505080156118f257506040513d601f19601f820116820180604052508101906118ef9190612fae565b60015b611976573d8060008114611922576040519150601f19603f3d011682016040523d82523d6000602084013e611927565b606091505b50600081510361196e57836040517f64a0ae92000000000000000000000000000000000000000000000000000000008152600401611965919061237a565b60405180910390fd5b805181602001fd5b63150b7a0260e01b7bffffffffffffffffffffffffffffffffffffffffffffffffffffffff1916817bffffffffffffffffffffffffffffffffffffffffffffffffffffffff1916146119ff57836040517f64a0ae920000000000000000000000000000000000000000000000000000000081526004016119f6919061237a565b60405180910390fd5b505b50505050565b606060405180606001604052806034815260200161303460349139905090565b606060006001611a3684611ebb565b01905060008167ffffffffffffffff811115611a5557611a54612488565b5b6040519080825280601f01601f191660200182016040528015611a875781602001600182028036833780820191505090505b509050600082602001820190505b600115611aea578080600190039150507f3031323334353637383961626364656600000000000000000000000000000000600a86061a8153600a8581611ade57611add612fdb565b5b04945060008503611a95575b819350505050919050565b611b0f82826040518060200160405280600081525061200e565b5050565b60007f80ac58cd000000000000000000000000000000000000000000000000000000007bffffffffffffffffffffffffffffffffffffffffffffffffffffffff1916827bffffffffffffffffffffffffffffffffffffffffffffffffffffffff19161480611bde57507f5b5e139f000000000000000000000000000000000000000000000000000000007bffffffffffffffffffffffffffffffffffffffffffffffffffffffff1916827bffffffffffffffffffffffffffffffffffffffffffffffffffffffff1916145b80611bee5750611bed8261202a565b5b9050919050565b60006002600083815260200190815260200160002060009054906101000a900473ffffffffffffffffffffffffffffffffffffffff169050919050565b8080611c6b5750600073ffffffffffffffffffffffffffffffffffffffff168273ffffffffffffffffffffffffffffffffffffffff1614155b15611d9f576000611c7b846110dc565b9050600073ffffffffffffffffffffffffffffffffffffffff168373ffffffffffffffffffffffffffffffffffffffff1614158015611ce657508273ffffffffffffffffffffffffffffffffffffffff168173ffffffffffffffffffffffffffffffffffffffff1614155b8015611cf95750611cf78184610f4f565b155b15611d3b57826040517fa9fbf51f000000000000000000000000000000000000000000000000000000008152600401611d32919061237a565b60405180910390fd5b8115611d9d57838573ffffffffffffffffffffffffffffffffffffffff168273ffffffffffffffffffffffffffffffffffffffff167f8c5be1e5ebec7d5bd14f71427d1e84f3dd0314c0f7b2291e5b200ac8c7c3b92560405160405180910390a45b505b836004600085815260200190815260200160002060006101000a81548173ffffffffffffffffffffffffffffffffffffffff021916908373ffffffffffffffffffffffffffffffffffffffff16021790555050505050565b611e02838383612094565b611eb657600073ffffffffffffffffffffffffffffffffffffffff168373ffffffffffffffffffffffffffffffffffffffff1603611e7757806040517f7e273289000000000000000000000000000000000000000000000000000000008152600401611e6e9190612463565b60405180910390fd5b81816040517f177e802f000000000000000000000000000000000000000000000000000000008152600401611ead92919061300a565b60405180910390fd5b505050565b600080600090507a184f03e93ff9f4daa797ed6e38ed64bf6a1f0100000000000000008310611f19577a184f03e93ff9f4daa797ed6e38ed64bf6a1f0100000000000000008381611f0f57611f0e612fdb565b5b0492506040810190505b6d04ee2d6d415b85acef81000000008310611f56576d04ee2d6d415b85acef81000000008381611f4c57611f4b612fdb565b5b0492506020810190505b662386f26fc100008310611f8557662386f26fc100008381611f7b57611f7a612fdb565b5b0492506010810190505b6305f5e1008310611fae576305f5e1008381611fa457611fa3612fdb565b5b0492506008810190505b6127108310611fd3576127108381611fc957611fc8612fdb565b5b0492506004810190505b60648310611ff65760648381611fec57611feb612fdb565b5b0492506002810190505b600a8310612005576001810190505b80915050919050565b61201883836113d5565b6120256000848484611850565b505050565b60007f01ffc9a7000000000000000000000000000000000000000000000000000000007bffffffffffffffffffffffffffffffffffffffffffffffffffffffff1916827bffffffffffffffffffffffffffffffffffffffffffffffffffffffff1916149050919050565b60008073ffffffffffffffffffffffffffffffffffffffff168373ffffffffffffffffffffffffffffffffffffffff161415801561214c57508273ffffffffffffffffffffffffffffffffffffffff168473ffffffffffffffffffffffffffffffffffffffff16148061210d575061210c8484610f4f565b5b8061214b57508273ffffffffffffffffffffffffffffffffffffffff1661213383611164565b73ffffffffffffffffffffffffffffffffffffffff16145b5b90509392505050565b6000604051905090565b600080fd5b600080fd5b60007fffffffff0000000000000000000000000000000000000000000000000000000082169050919050565b61219e81612169565b81146121a957600080fd5b50565b6000813590506121bb81612195565b92915050565b6000602082840312156121d7576121d661215f565b5b60006121e5848285016121ac565b91505092915050565b60008115159050919050565b612203816121ee565b82525050565b600060208201905061221e60008301846121fa565b92915050565b600081519050919050565b600082825260208201905092915050565b60005b8381101561225e578082015181840152602081019050612243565b60008484015250505050565b6000601f19601f8301169050919050565b600061228682612224565b612290818561222f565b93506122a0818560208601612240565b6122a98161226a565b840191505092915050565b600060208201905081810360008301526122ce818461227b565b905092915050565b6000819050919050565b6122e9816122d6565b81146122f457600080fd5b50565b600081359050612306816122e0565b92915050565b6000602082840312156123225761232161215f565b5b6000612330848285016122f7565b91505092915050565b600073ffffffffffffffffffffffffffffffffffffffff82169050919050565b600061236482612339565b9050919050565b61237481612359565b82525050565b600060208201905061238f600083018461236b565b92915050565b61239e81612359565b81146123a957600080fd5b50565b6000813590506123bb81612395565b92915050565b600080604083850312156123d8576123d761215f565b5b60006123e6858286016123ac565b92505060206123f7858286016122f7565b9150509250929050565b60008060006060848603121561241a5761241961215f565b5b6000612428868287016123ac565b9350506020612439868287016123ac565b925050604061244a868287016122f7565b9150509250925092565b61245d816122d6565b82525050565b60006020820190506124786000830184612454565b92915050565b600080fd5b600080fd5b7f4e487b7100000000000000000000000000000000000000000000000000000000600052604160045260246000fd5b6124c08261226a565b810181811067ffffffffffffffff821117156124df576124de612488565b5b80604052505050565b60006124f2612155565b90506124fe82826124b7565b919050565b600067ffffffffffffffff82111561251e5761251d612488565b5b6125278261226a565b9050602081019050919050565b82818337600083830152505050565b600061255661255184612503565b6124e8565b90508281526020810184848401111561257257612571612483565b5b61257d848285612534565b509392505050565b600082601f83011261259a5761259961247e565b5b81356125aa848260208601612543565b91505092915050565b600080604083850312156125ca576125c961215f565b5b60006125d8858286016123ac565b925050602083013567ffffffffffffffff8111156125f9576125f8612164565b5b61260585828601612585565b9150509250929050565b6000602082840312156126255761262461215f565b5b6000612633848285016123ac565b91505092915050565b612645816121ee565b811461265057600080fd5b50565b6000813590506126628161263c565b92915050565b6000806040838503121561267f5761267e61215f565b5b600061268d858286016123ac565b925050602061269e85828601612653565b9150509250929050565b600081519050919050565b600082825260208201905092915050565b6000819050602082019050919050565b600082825260208201905092915050565b60006126f082612224565b6126fa81856126d4565b935061270a818560208601612240565b6127138161226a565b840191505092915050565b600061272a83836126e5565b905092915050565b6000602082019050919050565b600061274a826126a8565b61275481856126b3565b935083602082028501612766856126c4565b8060005b858110156127a25784840389528151612783858261271e565b945061278e83612732565b925060208a0199505060018101905061276a565b50829750879550505050505092915050565b600060208201905081810360008301526127ce818461273f565b905092915050565b600067ffffffffffffffff8211156127f1576127f0612488565b5b6127fa8261226a565b9050602081019050919050565b600061281a612815846127d6565b6124e8565b90508281526020810184848401111561283657612835612483565b5b612841848285612534565b509392505050565b600082601f83011261285e5761285d61247e565b5b813561286e848260208601612807565b91505092915050565b600080600080608085870312156128915761289061215f565b5b600061289f878288016123ac565b94505060206128b0878288016123ac565b93505060406128c1878288016122f7565b925050606085013567ffffffffffffffff8111156128e2576128e1612164565b5b6128ee87828801612849565b91505092959194509250565b600081519050919050565b600082825260208201905092915050565b6000819050602082019050919050565b61292f816122d6565b82525050565b60006129418383612926565b60208301905092915050565b6000602082019050919050565b6000612965826128fa565b61296f8185612905565b935061297a83612916565b8060005b838110156129ab5781516129928882612935565b975061299d8361294d565b92505060018101905061297e565b5085935050505092915050565b600060208201905081810360008301526129d2818461295a565b905092915050565b600080604083850312156129f1576129f061215f565b5b60006129ff858286016123ac565b9250506020612a10858286016123ac565b9150509250929050565b7f4e487b7100000000000000000000000000000000000000000000000000000000600052602260045260246000fd5b60006002820490506001821680612a6157607f821691505b602082108103612a7457612a73612a1a565b5b50919050565b6000606082019050612a8f600083018661236b565b612a9c6020830185612454565b612aa9604083018461236b565b949350505050565b7f496e73756666696369656e74206372656469747320746f206365727466792100600082015250565b6000612ae7601f8361222f565b9150612af282612ab1565b602082019050919050565b60006020820190508181036000830152612b1681612ada565b9050919050565b7f4e487b7100000000000000000000000000000000000000000000000000000000600052601160045260246000fd5b6000612b57826122d6565b91507fffffffffffffffffffffffffffffffffffffffffffffffffffffffffffffffff8203612b8957612b88612b1d565b5b600182019050919050565b7f4e487b7100000000000000000000000000000000000000000000000000000000600052603260045260246000fd5b600081905092915050565b6000612bd982612224565b612be38185612bc3565b9350612bf3818560208601612240565b80840191505092915050565b7f2e6a736f6e000000000000000000000000000000000000000000000000000000600082015250565b6000612c35600583612bc3565b9150612c4082612bff565b600582019050919050565b6000612c578285612bce565b9150612c638284612bce565b9150612c6e82612c28565b91508190509392505050565b60008190508160005260206000209050919050565b60006020601f8301049050919050565b600082821b905092915050565b600060088302612cdc7fffffffffffffffffffffffffffffffffffffffffffffffffffffffffffffffff82612c9f565b612ce68683612c9f565b95508019841693508086168417925050509392505050565b6000819050919050565b6000612d23612d1e612d19846122d6565b612cfe565b6122d6565b9050919050565b6000819050919050565b612d3d83612d08565b612d51612d4982612d2a565b848454612cac565b825550505050565b600090565b612d66612d59565b612d71818484612d34565b505050565b5b81811015612d9557612d8a600082612d5e565b600181019050612d77565b5050565b601f821115612dda57612dab81612c7a565b612db484612c8f565b81016020851015612dc3578190505b612dd7612dcf85612c8f565b830182612d76565b50505b505050565b600082821c905092915050565b6000612dfd60001984600802612ddf565b1980831691505092915050565b6000612e168383612dec565b9150826002028217905092915050565b612e2f82612224565b67ffffffffffffffff811115612e4857612e47612488565b5b612e528254612a49565b612e5d828285612d99565b600060209050601f831160018114612e905760008415612e7e578287015190505b612e888582612e0a565b865550612ef0565b601f198416612e9e86612c7a565b60005b82811015612ec657848901518255600182019150602085019450602081019050612ea1565b86831015612ee35784890151612edf601f891682612dec565b8355505b6001600288020188555050505b505050505050565b600081519050919050565b600082825260208201905092915050565b6000612f1f82612ef8565b612f298185612f03565b9350612f39818560208601612240565b612f428161226a565b840191505092915050565b6000608082019050612f62600083018761236b565b612f6f602083018661236b565b612f7c6040830185612454565b8181036060830152612f8e8184612f14565b905095945050505050565b600081519050612fa881612195565b92915050565b600060208284031215612fc457612fc361215f565b5b6000612fd284828501612f99565b91505092915050565b7f4e487b7100000000000000000000000000000000000000000000000000000000600052601260045260246000fd5b600060408201905061301f600083018561236b565b61302c6020830184612454565b939250505056fe697066732f516d6475463762745274774e6d38666563646a763661686250635a645a63524e426247724d5752617a564a504a432fa2646970667358221220644310c430aa0cf61c4c940e067b84d9b4c4bffa40a711e9a1d341f7d11a371a64736f6c63430008140033",
  "linkReferences": {},
  "deployedLinkReferences": {}
}